:100000000C9434000C943E000C943E000C943E0082
:100010000C943E000C943E000C943E000C943E0068
:100020000C943E000C943E000C943E000C943E0058
:100030000C943E000C943E000C943E000C943E0048
:100040000C943E000C943E000C943E000C943E0038
:100050000C943E000C943E000C943E000C943E0028
:100060000C943E000C943E0011241FBECFEFD8E04C
:10007000DEBFCDBF0E9440000C9494000C940000A1
:100080008FEF8AB91BB84FEF6BEA83E00E944D00F7
:1000900088EC87BD82E388BDFFCF14BC15BCEEE6BB
:1000A000F0E09081977F9083823071F018F488237C
:1000B00031F033C08330A1F08730F1F02EC095B518
:1000C0006770692B65BD29C094B5262F207F83708A
:1000D000822B892B84BD95B56770692B65BD1DC0CA
:1000E00094B5262F207F8370822B892B84BD95B5F4
:1000F0006770692B65BD11C024B5362F307F982FEE
:100100009370932B922B94BD25B590E0880F991F87
:1001100088706770862B822B85BDEEE6F0E08081CB
:0C0120004095482B40830895F894FFCFD1
:00000001FF
