:100000000C94280D0C943D0D0C943D0D0C943D0D5D
:100010000C943D0D0C943D0D0C943D0D0C943D0D38
:100020000C943D0D0C943D0D0C943D0D0C943D0D28
:100030000C943D0D0C943D0D0C943D0D0C943D0D18
:100040000C943D0D0C943D0D0C943D0D0C943D0D08
:100050000C943D0D0C943D0D0C943D0D0C943D0DF8
:100060000C943D0D0C943D0D000000000000005F5D
:1000700000000007000700147F147F14242A7F2A41
:10008000122313086462364955225000050300000C
:10009000001C2241000041221C0014083E081408E4
:1000A000083E0808005030000008080808080060F2
:1000B00060000020100804023E5149453E00427F86
:1000C000400042615149462141454B311814127F8D
:1000D0001027454545393C4A494930010179050316
:1000E0003649494936064949291E0036360000007E
:1000F000563600000814224100141414141441222E
:1001000014080002015109063E415D555E7E090951
:10011000097E7F494949363E414141227F41412282
:100120001C7F494941417F090909013E4141497A02
:100130007F0808087F00417F41002040413F017F48
:10014000081422417F404040407F020C027F7F0420
:1001500008107F3E4141413E7F090909063E415159
:10016000215E7F09192946464949493101017F012C
:10017000013F4040403F1F2040201F3F403F403F45
:100180006314081463070878080761514945430060
:100190007F41410001020408100041417F00040238
:1001A0000102044040404040000003050020545438
:1001B00054787F48444438384444442038444448C0
:1001C0007F3854545418087E090102085454543C92
:1001D0007F0804047800447D40002040453C007FB7
:1001E0001028440000417F40007C043804787C08DB
:1001F00004047838444444387C1414140808141453
:10020000187C7C080404084854545420043F44409B
:10021000203C4040207C1C2040201C3C403C403C7A
:1002200044281028440C5050503C4464544C440022
:100230000836410000007F00000041360800100829
:100240001020104F164F124F0E4F0A4F064F02004C
:10025000000000000000000000000000000000009E
:10026000000000000000000000000000000000008E
:10027000000000000000000000000000000000007E
:10028000000000000000000000000000000000006E
:100290000020606010D090101030302060604080EE
:1002A000000000000000000000000000000000004E
:1002B000000000000000000000000000000000003E
:1002C000000000000000000000000000000000002E
:1002D000000000000000000000000000000000001E
:1002E000000000000000000000000080606020208E
:1002F0006020F8FC3C7E7EFCFCF8F8E0000000008A
:100300000080C0C040800000000000000000000C21
:100310000C0C1E3632D3D10000000000000000019A
:1003200003070E38F0C000000000000000000000CD
:1003300000000000000000000000000000000000BD
:1003400000000000000000000000000000000000AD
:10035000000000000000000000000000000000009D
:10036000000000000000000000FFC300FE830181C8
:10037000C1C0E0454780848D3F3F1B0C242474F8A6
:10038000FF674B473E01000000000080C0C0C04036
:10039000404046466939D880000000000000000057
:1003A00000000000000FF800000000000000000046
:1003B000000000000000000000000000000000003D
:1003C000000000000000000000000000000000002D
:1003D000000000000000000000000000000000001D
:1003E00000000000000000008837E1C0000306079D
:1003F00003010101030103FFC43D09080C080FFFBD
:10040000FFE17BF013CE00000000000101010103B9
:100410000323232A52DE8D000000000000000000AC
:100420000000000080F81F00000000000000000035
:1004300000000000000000000000000000000000BC
:1004400000000000000000000000000000000000AC
:10045000000000000000000000000000000000009C
:10046000000080C0701A0F07624082050B1796FECD
:10047000FEFCFC4E6F120309040808103040C080D7
:100480000101010100000000000000000000001850
:100490001818282E6EE7C100000000000000008040
:1004A000C060380E070100000000000000000000DE
:1004B000000000000000000000000000000000003C
:1004C000000000000000000000000000000000002C
:1004D000000000000000000000000000E0201018F4
:1004E0001C3C070100000080E07030181D0D1FFF4C
:1004F000FFFF7F14123AF868000000000000F01FB0
:1005000000000000000000000000000000000000EB
:1005100000020202050504040404040602030100AB
:1005200000000000000000000000000000000000CB
:1005300000000000000000000000000000000000BB
:1005400000000000000000000000000000000000AB
:10055000000000000080F86C02007EC38000008074
:10056000C06030180E06030100000000000000000B
:1005700000000000009FFFE06020F07000080F0006
:10058000000000000000000000000000000000006B
:10059000000000000000000000000000000000005B
:1005A000000000000000000000000000000000004B
:1005B000000000000000000000000000000000003B
:1005C00000000000000000000000000000000030FB
:1005D00078787CFCFCFFFFF0F0F0FC767F7F7F7F7B
:1005E0007F7F7E7EFEFCFCFEFCFCFCFCFCFCFCFC3D
:1005F000FCFCFCFCFCFFF9F0F8F0F1F2F6F27C7C7C
:100600007830000000000000000000000000000042
:1006100000000000000000000000000000000000DA
:1006200000000000000000000000000000000000CA
:1006300000000000000000000000000000000000BA
:1006400000000000000000000000000000000000AA
:10065000000000000000000000000000000000009A
:10066000000000000000000000000000000000008A
:10067000000000000000000000000000000000007A
:10068000000000000000000000000000000000006A
:10069000000000000000000000000000000000005A
:1006A000000000000000000000000000000000004A
:1006B000000000000000000000000000000000003A
:1006C000000000000000000000000000000000002A
:1006D000000000000000000000000000000000001A
:1006E000000000000000000000000080606020208A
:1006F0006020F8FC3C7E7EFCFCF8F8E00000000086
:100700000080C0C0C02020181818181818183020F1
:1007100060C0800000000000000000000000000039
:1007200000000000000000000000000000000000C9
:1007300000000000000000000000000000000000B9
:1007400000000000000000000000000000000000A9
:100750000000000000000000000000000000000099
:10076000000000000000000000FFC300FE830181C4
:10077000C1C0E0454780848D3F3F1B0C2424E4F832
:100780003F0F010000000020E0F8C48405091F08A5
:100790000000010306F80000000000000000000057
:1007A0000000000000000000000000000000000049
:1007B0000000000000000000000000000000000039
:1007C0000000000000000000000000000000000029
:1007D0000000000000000000000000000000000019
:1007E00000000000000000008837E1C00003060799
:1007F00003010101030103FFC43D09080C080FFFB9
:10080000F8E080000000000D0F1F07420220F000FA
:1008100000000080E03F0000000000000000000039
:1008200000000000000000000000000000000000C8
:1008300000000000000000000000000000000000B8
:1008400000000000000000000000000000000000A8
:100850000000000000000000000000000000000098
:10086000000080C0701A0F07624082050B1796FEC9
:10087000FEFCFC4E6F120309040808103040C080D3
:1008800001010103060C1C1010101010101818089C
:100890000C06030100000000000000000000000042
:1008A0000000000000000000000000000000000048
:1008B0000000000000000000000000000000000038
:1008C0000000000000000000000000000000000028
:1008D000000000000000000000000000E0201018F0
:1008E0001C3C070100000080E07038181D0D1FFF40
:1008F000FFFF7F14123AF868000000000000F01FAC
:1009000000000000000000000000000000000000E7
:1009100000000000000000000000000000000000D7
:1009200000000000000000000000000000000000C7
:1009300000000000000000000000000000000000B7
:1009400000000000000000000000000000000000A7
:10095000000000000080F86C02007EC38000008070
:10096000C06030180E060301000000000000000007
:1009700000000000009FFFE06020F0F000080F0082
:100980000000000000000000000000000000000067
:100990000000000000000000000000000000000057
:1009A0000000000000000000000000000000000047
:1009B0000000000000000000000000000000000037
:1009C00000000000000000000000000000000030F7
:1009D00078787CFCFCFFFFF0F0F0FC767F7F7F7F77
:1009E0007F7F7E7EFEFCFCFEFCFCFCFCFCFCFCFC39
:1009F000FCFCFCFCFCFFF9F0F8F0F1F2F6F27C7C78
:100A0000783000000000000000000000000000003E
:100A100000000000000000000000000000000000D6
:100A200000000000000000000000000000000000C6
:100A300000000000000000000000000000000000B6
:100A400000000000000000000000000000000000A6
:100A50000000000000000000000000000000000096
:100A600000000000C000C000808080800000000006
:100A70000000000000000000000000000000000076
:100A80000000000000000000000000000000000066
:100A90000000000000000000000000000000000056
:100AA0000000000000000000000000000000000046
:100AB0000000000000000000000000000000000036
:100AC0000000000000000000000000000000000026
:100AD0000000000000000000000000000000000016
:100AE00040B0F0281306BFEFDF1F7F7FFF7EFE3C84
:100AF00000000000000000000000000000000000F6
:100B000000000000000000000000000000000000E5
:100B100000000000000000000000000000000000D5
:100B200000000000000000000000000000000000C5
:100B300000000000000000000000000000000000B5
:100B400000000000000000000000000000000000A5
:100B50000000000000000000000000000000C0E0F5
:100B6000909FC1FCA21B4524138EC565222221E063
:100B700002E4F0000000000000000000000000009F
:100B80000000000000000000000000000000000065
:100B90000000000000000000000000000000000055
:100BA0000000000000000000000000000000000045
:100BB0000000000000000000000000000000000035
:100BC0000000000000000000000000000000000025
:100BD00000000000000000000000000000003FF1E5
:100BE000EBFDFFFC9F1C08183763C1C0203CCE27DB
:100BF00018050300000000000000000000000000D5
:100C000000000000000000000000000000000000E4
:100C100000000000000000000000000000000000D4
:100C200000000000000000000000000000000000C4
:100C300000000000000000000000000000000000B4
:100C400000000000000000000000000000000000A4
:100C500000000000000000000000000006F8BFC314
:100C6000E768B1F1FB7F5FDECACB432311090D03B7
:100C70000E08103060C0800000000000000000007E
:100C80000000000000000000000000000000000064
:100C90000000000000000000000000000000000054
:100CA0000000000000000000000000000000000044
:100CB0000000000000000000000000000000000034
:100CC0000000000000000000000000000000000024
:100CD00000000000000000000080C0703F0F000214
:100CE00002070381781E070D0C1818101078F8D42D
:100CF0000820000000000F3080000000000000000D
:100D000000000000000000000000000000000000E3
:100D100000000000000000000000000000000000D3
:100D200000000000000000000000000000000000C3
:100D300000000000000000000000000000000000B3
:100D400000000000000000000000000000000000A3
:100D500000000000000080F87F838000000080C059
:100D6000BC8C868380800000000000000000030629
:100D70007E6000C0E06010498D00000000000000AF
:100D80000000000000000000000000000000000063
:100D90000000000000000000000000000000000053
:100DA0000000000000000000000000000000000043
:100DB0000000000000000000000000000000000033
:100DC000000000000000000000000000000000180B
:100DD0003C3C7C7C7C7F7F7E7C78703F333F3F3F18
:100DE0003F3F3F3F3F3F3F7F7E7E7E7E7C7C7C7CE3
:100DF0007C7C7C7F7B7E787078737A747C7C7C3C96
:100E00003C1800000000000000000000000000008E
:100E100000000000000000000000000000000000D2
:100E200000000000000000000000000000000000C2
:100E300000000000000000000000000000000000B2
:100E400000000000000000000000000000000000A2
:100E50000000000000000000000000000000008012
:100E6000C0E0E0E0E0E0C0C00000000000000000E2
:100E70000000000000000000000000000000000072
:100E80000000000000000000000000000000000062
:100E90000000000000000000000000000000000052
:100EA0000000000000000000000000000000000042
:100EB0000000000000000000000000000000000032
:100EC0000000000000000000000000000000000022
:100ED0000000000000000000E0F008040201805F54
:100EE00079E78F3BC77F7F0F1F20404080000000C5
:100EF00000000000000000000000000000000000F2
:100F000000000000000000000000000000000000E1
:100F100000000000000000000000000000000000D1
:100F200000000000000000000000000000000000C1
:100F300000000000000000000000000000000000B1
:100F400000000000000000000000000000000000A1
:100F50000000000000F8C8EE61317CC0FECFE4F470
:100F6000FCF8E17349E0B82C060282C6FC030C00D1
:100F70000000000000000000000000000000000071
:100F80000000000000000000000000000000000061
:100F90000000000000000000000000000000000051
:100FA0000000000000000000000000000000000041
:100FB0000000000000000000000000000000000031
:100FC0000000000000000000000000000000000021
:100FD0000000000000010306EE754F3B73E7FBE9DC
:100FE000E7AFF4E04080E3AC381C070300000000EA
:100FF00000000000000000000000000000000000F1
:1010000000000000000000000000000000000000E0
:1010100000000000000000000000000000000000D0
:1010200000000000000000000000000000000000C0
:1010300000000000000000000000000000000000B0
:1010400000000000000000000000000000000000A0
:101050000000000000000000FF1C06030102060F54
:10106000FFF7FEFE78F80D06050608081060800000
:101070000000000000000000000000000000000070
:101080000000000000000000000000000000000060
:101090000000000000000000000000000000000050
:1010A0000000000000000000000000000000000040
:1010B0000000000000000000000000000000000030
:1010C0000000000000000000000000000000000020
:1010D00000000000000080E03F3C000000000080B5
:1010E000FF1F03060C18303060C0400000000003F2
:1010F0001C30E000000000000000000000000000C4
:1011000000000000000000000000000000000000DF
:1011100000000000000000000000000000000000CF
:1011200000000000000000000000000000000000BF
:1011300000000000000000000000000000000000AF
:10114000000000000000000000000000000000009F
:101150000000000000009FF1404040C060BA8F874F
:1011600081808080808000000001070C102060409A
:1011700000C0C06172CE80000000000000000000CE
:10118000000000000000000000000000000000005F
:10119000000000000000000000000000000000004F
:1011A000000000000000000000000000000000003F
:1011B000000000000000000000000000000000002F
:1011C0000000000000000000000000000000001807
:1011D0003C3C7C7C7C7C7D747C7C743B3F3F3F3F13
:1011E0003F3F3F3F3F3F3F7F7E7E7E7E7C7C7C7CDF
:1011F0007C7F797C78707971727C7C7C7C7C7C3C97
:101200003C1800000000000000000000000000008A
:1012100000000000000000000000000000000000CE
:1012200000000000000000000000000000000000BE
:1012300000000000000000000000000000000000AE
:10124000000000000000000000000000000000009E
:1012500000000000000000000080404020C040F07E
:101260007CDE3F7FFFFEFEFC7800000000000000F7
:10127000000000000000000000000000000000006E
:10128000000000000000000000000000000000005E
:10129000000000000000000000000000000000004E
:1012A000000000000000000000000000000000003E
:1012B000000000000000000000000000000000002E
:1012C000000000000000000000000000000000001E
:1012D00000000000000080FE4D7CC0E0E078B21805
:1012E000EF47FC1A9AFF0102060102821CE020006F
:1012F00000000000000000000000000000000000EE
:1013000000000000000000000000000000000000DD
:1013100000000000000000000000000000000000CD
:1013200000000000000000000000000000000000BD
:1013300000000000000000000000000000000000AD
:10134000000000000000000000000000000000009D
:1013500000000000001E203030107BDB8F861E63F3
:101360009F7ABBDEA7C8E0F8B078FE73103FE000BC
:10137000000000000000000000000000000000006D
:10138000000000000000000000000000000000005D
:10139000000000000000000000000000000000004D
:1013A000000000000000000000000000000000003D
:1013B000000000000000000000000000000000002D
:1013C000000000000000000000000000000000001D
:1013D000000000000000000020D0C8C48306060DF5
:1013E0007DFFFCED2607838BB6E7CF2F0C060300AD
:1013F00000000000000000000000000000000000ED
:1014000000000000000000000000000000000000DC
:1014100000000000000000000000000000000000CC
:1014200000000000000000000000000000000000BC
:1014300000000000000000000000000000000000AC
:10144000000000000000000000000000000000009C
:1014500000000000000080E0780600000001038624
:10146000EE7F1FFFF77F5900000001061CF000000F
:10147000000000000000000000000000000000006C
:10148000000000000000000000000000000000005C
:10149000000000000000000000000000000000004C
:1014A000000000000000000000000000000000003C
:1014B000000000000000000000000000000000002C
:1014C000000000000000000000000000000000001C
:1014D00000000000000000FF000000000028FAFFEC
:1014E00001000000030E1C38F0E0C0000000070EF1
:1014F0003C30C08000000000000000000000000040
:1015000000000000000000000000000000000000DB
:1015100000000000000000000000000000000000CB
:1015200000000000000000000000000000000000BB
:1015300000000000000000000000000000000000AB
:10154000000000000000000000000000000000009B
:10155000000000000000001F20E0602060BA9F87AC
:1015600080808080808080800001030E3C7040C0BD
:10157000E0301C6780000000000000000000000058
:10158000000000000000000000000000000000005B
:10159000000000000000000000000000000000004B
:1015A000000000000000000000000000000000003B
:1015B000000000000000000000000000000000002B
:1015C0000000000000000000000000000000001803
:1015D0003C3C7C7C7C7C7E727F7C30303C3E3F3F60
:1015E0003F3F3F3F3F3F3F3F3F7F7E7E7E7E7C7C55
:1015F000743C3C18191F00000000000000000000AF
:1016000000000000000000000000000000000000DA
:1016100000000000000000000000000000000000CA
:1016200000000000000000000000000000000000BA
:1016300000000000000000000000000000000000AA
:10164000000000000000000000000000000000009A
:101650000000C02018CCE46464648C18080C3E3F81
:10166000CF3F3FFFFFFEFC780000000000000000BD
:10167000000000000000000000000000000000006A
:10168000000000000000000000000000000000005A
:10169000000000000000000000000000000000004A
:1016A000000000000000000000000000000000003A
:1016B000000000000000000000000000000000002A
:1016C000000000000000000000000000000000001A
:1016D00000003FC0BFFFC78008090F0890F0F8F86E
:1016E000FFFECCF301E7F518000000000000000049
:1016F00000000000000000000000000000000000EA
:1017000000000000000000000000000000000000D9
:1017100000000000000000000000000000000000C9
:1017200000000000000000000000000000000000B9
:1017300000000000000000000000000000000000A9
:101740000000000000000000000000000000000099
:1017500000000001071CF9F7E5C7C3C3C1E1E0DFE2
:10176000E075DBFD3AE9CFC03000C00000000000AA
:101770000000000000000000000000000000000069
:101780000000000000000000000000000000000059
:101790000000000000000000000000000000000049
:1017A0000000000000000000000000000000000039
:1017B0000000000000000000000000000000000029
:1017C0000000000000000000000000000000000019
:1017D000000000BC4C32798000018DFF8BFFF94086
:1017E0006071FFED0D070707030100000000000016
:1017F00000000000000000000000000000000000E9
:1018000000000000000000000000000000000000D8
:1018100000000000000000000000000000000000C8
:1018200000000000000000000000000000000000B8
:1018300000000000000000000000000000000000A8
:101840000000000000000000000000000000000098
:10185000C0380700000000000183FF7FFF8F0700F2
:1018600000000F07FFF8C0000000000000000000AB
:101870000000000000000000000000000000000068
:101880000000000000000000000000000000000058
:101890000000000000000000000000000000000048
:1018A0000000000000000000000000000000000038
:1018B0000000000000000000000000000000000028
:1018C0000000000000000000000000000000000018
:1018D0003FC00000000012979FFBC18000071E3030
:1018E000E0C0000007171F3C78E000000000000087
:1018F00000000000000000000000000000000000E8
:1019000000000000000000000000000000000000D7
:1019100000000000000000000000000000000000C7
:1019200000000000000000000000000000000000B7
:1019300000000000000000000000000000000000A7
:101940000000000000000000000000000000000097
:1019500000030E30C0000080000547FF1E0000009D
:1019600001030F1C38E0808040F1ED06000000000C
:101970000000000000000000000000000000000067
:101980000000000000000000000000000000000057
:101990000000000000000000000000000000000047
:1019A0000000000000000000000000000000000037
:1019B0000000000000000000000000000000000027
:1019C00000000000000000000000000000000038DF
:1019D000787CFCFCFEF6FFE1F0F07E7E7F7F7F7F6F
:1019E0007F7F7F7E7EFEE1E8F0F8EBFEFC7C78787E
:1019F00030000000000000000000000000000000B7
:101A000000000000000000000000000000000000D6
:101A100000000000000000000000000000000000C6
:101A200000000000000000000000000000000000B6
:101A300000000000000000000000000000000000A6
:101A40000000000000000000000000000000000096
:101A500011241FBECFEFD8E0DEBFCDBF11E0A0E064
:101A6000B1E0ECEDFDE102C005900D92A031B107AF
:101A7000D9F70E94B20E0C94EC0E0C9400008FEF7C
:101A80008AB987B988B1816088B988B1826088B91C
:101A900088B18F7D88B98AE08A95F1F700C088B156
:101AA000806288B988B18B7F88B988B1877F88B90F
:101AB0008FE38BB985E38A95F1F7000088B18061E7
:101AC00088B985E38A95F1F7000088B18F7E88B9DF
:101AD00080E48BB985E38A95F1F7000088B18061D5
:101AE00088B985E38A95F1F7000088B18F7E88B9BF
:101AF00088EB8BB985E38A95F1F7000088B18061A6
:101B000088B985E38A95F1F7000088B18F7E88B99E
:101B100080EC8BB985E38A95F1F7000088B180618C
:101B200088B985E38A95F1F7000088B18F7E88B97E
:101B300008951AB888B1816088B988B1826088B97F
:101B400088B18B7F88B988B1886088B985E38A9528
:101B5000F1F7000088B1806188B985E38A95F1F7D3
:101B6000000088B18F7E88B94F9B02C081E0089544
:101B700080E00895CF93C82F0E94990D8111FCCF6A
:101B800088B1816088B988B1826088B988B18B7F5B
:101B900088B988B1877F88B9CBB985E38A95F1F791
:101BA000000088B1806188B985E38A95F1F700006B
:101BB00088B18F7E88B9CF910895CF93C82F0E94A6
:101BC000990D8111FCCF88EB8C0F0E94BA0DCF913B
:101BD0000895CF93C82F0E94990D8111FCCFC03476
:101BE00008F0C05480E48C0F0E94BA0DCF91089584
:101BF0001F93CF93DF93D82F162FC42F0E94990DD8
:101C00008111FCCF812F0E94DD0D8C2F0E94E90DE8
:101C100088B18E7F88B988B18D7F88B9C03420F4AF
:101C200088B1816088B903C088B1826088B988B101
:101C3000846088B988B1877F88B9DBB985E38A95E4
:101C4000F1F7000088B1806188B985E38A95F1F7E2
:101C5000000088B18F7E88B9DF91CF911F910895E0
:101C6000EF92FF920F931F93CF93DF93EC01E62E39
:101C7000042F29C00E94990D8111FCCF10E018C0DB
:101C8000FF24F394F00E888190E08097FC01EE0F22
:101C9000FF1FEE0FFF1FE80FF91FE10FF11DE859BD
:101CA000FF4F8491402F6E2D0E94F80D1F5F0F2D66
:101CB000153030F311E0100F402F6E2D80E00E94A0
:101CC000F80D2196012F88818111D4CFDF91CF911A
:101CD0001F910F91FF90EF9008950F931F93CF9353
:101CE000DF93FC01D0E00FC08F010F5F1F4F849185
:101CF0004C2F6D2F0E94F80DCF5FF80101C0C0E09E
:101D0000CC2394F7DF5FD830D0F3DF91CF911F91D0
:101D10000F910895CF93DF93D0E00BC04C2F6D2F20
:101D20008FEF0E94F80DCF5F01C0C0E0CC23B4F765
:101D3000DF5FD830D0F3DF91CF910895CF93DF9359
:101D4000D0E00BC04C2F6D2F80E00E94F80DCF5FCC
:101D500001C0C0E0CC23B4F7DF5FD830D0F3DF910F
:101D6000CF9108958FEF8AB984B987B91092C100D5
:101D70000E943F0D0E948A0E2FEF81EE94E02150C9
:101D800080409040E1F700C000000E949E0E2FEFBF
:101D900081EE94E0215080409040E1F700C00000C7
:101DA00040E060E080E091E00E94300EC0E011C0B1
:101DB000EC2FF0E0EE0FFF1FED5BFD4F859194914E
:101DC0000E946D0E8FED9EE20197F1F700C00000BA
:0C1DD000CF5FC63068F3EACFF894FFCF75
:101DDC00446973706C61792070726F6E746F00005F
:00000001FF
