S01A00007330355F6532315F63726F6E6F6D6574726F2E7372656364
S11300000C9464000C9481000C9481000C94810085
S11300100C9481000C9481000C9481000C94810058
S11300200C9481000C9481000C9481000C94810048
S11300300C9481000C9481000C9481000C94810038
S11300400C9481000C9481000C9481000C94810028
S11300500C9481000C9481000C9481000C94810018
S11300600C9481000C94810000014C02207C207CC3
S113007003044C5F03045F024C02200605035F0285
S113008005034C020701200605044C020504200662
S11300901F1010101010100F0101010101010101C6
S11300A0010101011F1F00000000001F1F010101C9
S11300B001011F1F10101010101F01010101010187
S11300C0011F00000000000011241FBECFEFD8E084
S11300D0DEBFCDBF11E0A0E0B1E0E4E4F6E002C091
S11300E005900D92A032B107D9F721E0A0E2B1E06A
S11300F001C01D92A132B207E1F70E9434020C94B0
S113010020030C9400002A98299A85E08A95F1F737
S11301100000289A95E09A95F1F7000089B1289893
S113012095E09A95F1F70000289A95E09A95F1F7F1
S113013000002898299887FF02C081E0089580E094
S113014008958AE08A95F1F700C0289A8AE08A9592
S1130150F1F700C028980895CF93C82F8AB1806F13
S11301608AB92A9829988BB18F709C2F907F892BFC
S11301708BB90E94A1008BB1282F2F7030E1C39F4F
S1130180C0011124822B8BB90E94A10080EF8A95B3
S1130190F1F729985798569855985498CF910895FF
S11301A0CF93C82F8AB1806F8AB92A9A29988BB1C4
S11301B08F709C2F907F892B8BB90E94A1008BB1EB
S11301C0282F2F7030E1C39FC0011124822B8BB9DB
S11301D00E94A1002A9880EF8A95F1F757985698C3
S11301E055985498CF910895CF92DF92EF92FF9251
S11301F00F931F93CF93DF9300D01F92CDB7DEB739
S1130200082F8091000190910101A091020189833E
S11302109A83AB832A98299828988AB1806F8AB9DF
S113022084B1876084B98FE59AEE0197F1F700C035
S1130230000013E08BB18F7080638BB90E94A10022
S1130240EFE1FEE43197F1F700C00000115091F79F
S11302508BB18F7080628BB90E94A100F5EDFA9585
S1130260F1F700008BB18F7080628BB9002331F0FD
S11302700E94A1008BB18F70806804C00E94A1000D
S11302808BB18F708BB90E94A1008FE19EE401971E
S1130290F1F700C00000FE0131967F018E010C5F72
S11302A01F4F8BB16701F70191917F01907F8F7090
S11302B0892B8BB90E94A1002BB1F6019081F0E14A
S11302C09F9FC0011124922F9F70892B8BB90E948C
S11302D0A10028988FE39FE10197F1F700C0000087
S11302E0E016F106F1F657985698559854980F90E1
S11302F00F900F90DF91CF911F910F91FF90EF908E
S1130300DF90CF90089581E00E94AC000E948300AA
S11303108111FCCF089582E00E94AC008FE39FE13D
S11303200197F1F700C0000008950E94AC000E94FC
S113033083008111FCCF08950C949501813019F04C
S1130340823029F008958FEF860F806803C08FEF05
S1130350860F806C0C94AC000F931F93CF93DF93A4
S1130360EC018E018881882351F00E948300811161
S1130370FCCF2196F80180810E94D000F2CFDF915A
S1130380CF911F910F910895CF92DF92EF92FF9238
S11303900F931F93CF937C0100E010E0C0E48C2FF7
S11303A00E94AC00C12CD12CF601E00FF11FEE0D20
S11303B0FF1D84910E94D0008FEFC81AD80A87E0ED
S11303C0C816D10489F780E00E94D000C85F095F95
S11303D01F4FC03821F7CF911F910F91FF90EF90DD
S11303E0DF90CF9008951B990FC01B9BFECF8FE326
S11303F09CE90197F1F700C0000081E09091200191
S1130400911180E08093200108950F931F93CF935F
S1130410DF93C82F062F10E0B80181E00E949E01EF
S113042084E0C89FE0011124FE01E859FF4F849144
S11304300E94D000FE01E759FF4F84910E94D00032
S1130440B80182E00E949E01FE01E659FF4F8491AB
S11304500E94D000FE01E559FF4F8491DF91CF91B6
S11304601F910F910C94D000109220018FEF8AB944
S113047087EF84B91BB888E085B981E00E94F40055
S11304808CE00E949C0180E990E00E94C4010E94DB
S113049083010E948B0164E070E081E00E949E0170
S11304A083E091E00E94AC0161E070E082E00E9490
S11304B09E018EE091E00E94AC010AE08AE0E82E01
S11304C0F12C0E94F301D0E0C0E010E08091200103
S11304D08823B9F30E9483010E948B01812F602F2E
S11304E00E94EC02D92E812F90E08D199109B70159
S11304F00E94F802862F61E00E94050263E08D2DC0
S11305000E94050265E070E081E00E949E0185EA98
S11305100E94D00065E070E082E00E949E0185EABE
S11305200E94D0008C2F602F0E94EC02D92E8C2FB9
S113053090E08D199109B7010E94F802862F66E0B8
S11305400E94050268E08D2D0E9405026AE070E0B9
S113055081E00E949E0185EA0E94D0006AE070E07A
S113056082E00E949E0185EA0E94D0008D2F602FB8
S11305700E94EC02D92E8D2F90E08D199109B701BC
S11305800E94F802862F6BE00E9405026DE08D2D1B
S11305900E9405026FE070E082E00E949E0183E702
S11305A00E94D0002FEF83ED90E3215080409040D3
S11305B0E1F700C00000DF5FDC3311F4CF5FD0E06F
S11305C0CC3311F41F5FC0E0133619F4D0E0C0E05F
S11305D010E00E94F3017ACF991B79E004C0991FBF
S11305E0961708F0961B881F7A95C9F78095089589
S11305F097FB072E16F4009407D077FD09D00E94CC
S11306000C0307FC05D03EF4909581959F4F089507
S1130610709561957F4F0895AA1BBB1B51E107C0DC
S1130620AA1FBB1FA617B70710F0A61BB70B881F7E
S1130630991F5A95A9F780959095BC01CD0108950D
S1070640F894FFCF58
S11306440F010643726F6E6F6D6574726F005072A2
S1130654657373696F6E6520626F74616F21000046
S9030000FC
