:100000000C9434000C943E000C943E000C943E0082
:100010000C943E000C943E000C943E000C943E0068
:100020000C943E000C943E000C943E000C943E0058
:100030000C943E000C943E000C943E000C943E0048
:100040000C943E000C943E000C943E000C943E0038
:100050000C943E000C943E000C943E000C943E0028
:100060000C943E000C943E0011241FBECFEFD8E04C
:10007000DEBFCDBF0E9440000C9402010C94000032
:1000800018B88FEF87B92FEF31EE94E02150304050
:100090009040E1F700C0000018B897B19B7F97B976
:1000A00098B1926098B92FEF31EE94E02150304032
:1000B0009040E1F700C0000018B898B1916098B97D
:1000C0002FEF31EE94E0215030409040E1F700C036
:1000D000000018B887B997B19E7F97B998B1926020
:1000E00098B92FEF31EE94E0215030409040E1F785
:1000F00000C0000018B898B1946098B92FEF31EEA5
:1001000094E0215030409040E1F700C0000018B862
:1001100087B997B19D7F97B998B1946098B92FEF3F
:1001200031EE94E0215030409040E1F700C00000F3
:1001300018B898B1916098B92FEF31EE94E0215042
:1001400030409040E1F700C0000018B887B988B18E
:10015000846088B92FEF31EE84E021503040804038
:10016000E1F700C0000018B888B1826088B99FEF3D
:1001700021EE34E0915020403040E1F700C0000013
:1001800018B888B1866088B98FEF91EE24E081506D
:1001900090402040E1F700C0000018B888B18160AD
:1001A00088B93FEF81EE94E0315080409040E1F714
:1001B00000C0000018B888B1856088B92FEF31EE13
:1001C00084E0215030408040E1F700C0000018B8C2
:1001D00088B1836088B99FEF21EE34E091502040D0
:1001E0003040E1F700C0000018B888B1876088B9D6
:1001F0008FEF91EE24E0815090402040E1F700C065
:0802000000003ECFF894FFCF8F
:00000001FF
