S02B00007330395F6531345F636F6E74726F6C655F616E67756C6F5F736572766F5F6D6F746F722E737265632C
S11300000C9434000C9446000C9446000C94460066
S11300100C9446000C9446000C9446000C94460044
S11300200C9446000C9446000C9446000C94460034
S11300300C9446000C9446000C9446000C94460024
S11300400C946B000C9446000C9446000C944600EF
S11300500C9446000C9446000C9446000C94460004
S11300600C9446000C94460011241FBECFEFD8E038
S1130070DEBFCDBF21E0A0E0B1E001C01D92A13000
S1130080B207E1F70E9448000C9406010C940000AA
S113009083EF8AB98FEF84B987B98CE08BB915B82F
S11300A018B84EEF6DEF80E00E94A90084E686BD8B
S11300B04FEF6AEB8EE00E94D3008FE39CE99093AC
S11300C087008093860088EE93E090938900809364
S11300D088007894FFCF1F920F920FB60F921124CD
S11300E02F938F939F93809100018F5F80930001E2
S11300F0809100018A3029F54A990EC080918800C8
S1130100909189008838934138F4809188009091C7
S113011089008C599F4F0FC04B9911C08091880062
S113012090918900893E934050F08091880090918D
S113013089008456910990938900809388001092D5
S113014000019F918F912F910F900FBE0F901F90E0
S1130150189514BC15BC90916E00977F90936E0017
S1130160362F3770882349F0607F982F937085303D
S113017040F484B5682B962B94BD95B5932B95BD0F
S11301800BC024B5622B962B94BD25B5880F8870BF
S1130190932F922B892B85BD80916E004095482B1F
S11301A040936E0008951092800010928100909107
S11301B06F00977D90936F00411104C0809181007E
S11301C067741AC0982F9370643040F48091800053
S11301D0982B90938000809181000EC02091800024
S11301E0922B262F207F922B909380009091810058
S11301F06770692B880F8871682B609381008091E8
S11302006F004095482B40936F000895F894FFCFFA
S9030000FC
