:100000000C94B4000C94D1000C94D1000C94D10049
:100010000C94D1000C94D1000C94D1000C94D1001C
:100020000C94D1000C94D1000C94D1000C94D1000C
:100030000C94D1000C94D1000C94D1000C94D100FC
:100040000C94E8000C94D1000C94D1000C94D100D5
:100050000C94D1000C94D1000C94D1000C94D100DC
:100060000C94D1000C94D100FEFDFCFBFAF9F8F7DA
:10007000F6F5F4F3F2F1F0EFEEEDECEBEAE9E8E798
:10008000E6E5E4E3E2E1E0DFDEDDDCDBDAD9D8D788
:10009000D6D5D4D3D2D1D0CFCECDCCCBCAC9C8C778
:1000A000C6C5C4C3C2C1C0BFBEBDBCBBBAB9B8B768
:1000B000B6B5B4B3B2B1B0AFAEADACABAAA9A8A758
:1000C000A6A5A4A3A2A1A09F9E9D9C9B9A99989748
:1000D000969594939291908F8E8D8C8B8A89888738
:1000E000868584838281807F7E7D7C7B7A79787728
:1000F000767574737271706F6E6D6C6B6A69686718
:10010000666564636261605F5E5D5C5B5A59585707
:10011000565554535251504F4E4D4C4B4A494847F7
:10012000464544434241403F3E3D3C3B3A393837E7
:10013000363534333231302F2E2D2C2B2A292827D7
:10014000262524232221201F1E1D1C1B1A191817C7
:10015000161514131211100F0E0D0C0B0A090807B7
:1001600006050403020100FE11241FBECFEFD8E0F4
:10017000DEBFCDBF11E0A0E0B1E0E0EBF2E002C0F5
:1001800005900D92A230B107D9F721E0A2E0B1E0CD
:1001900001C01D92A430B207E1F70E94D3000C9475
:1001A00056010C9400008FEF8AB99CEF97B984B97F
:1001B0001BB883E088B915B81092C1004EEF6DE00E
:1001C00080E00E9422018091000186BD7894FFCFDB
:1001D0001F920F920FB60F9211248F93EF93FF93FC
:1001E0008091000186BD809103018F5F80930301A0
:1001F000E0910201EF5FE0930201893159F43099F7
:1002000004C086EF8093000105C0319903C08AE0E5
:1002100080930001F0E0E859FF4FE491EBB9809141
:1002200002018F3720F485B18E7F85B903C085B177
:10023000816085B9FF91EF918F910F900FBE0F9064
:100240001F90189514BC15BCEEE6F0E09081977FE6
:100250009083811105C085B56770682B65BD1FC08F
:10026000853060F494B5262F207F8370822B892BF4
:1002700084BD85B56770682B65BD11C024B5362F68
:10028000307F982F9370932B922B94BD25B590E0DF
:10029000880F991F88706770862B822B85BDEEE6CC
:1002A000F0E080814095482B40830895F894FFCF7B
:0202B000C30089
:00000001FF
