:100000000C9436000C944B000C944B000C944B0059
:100010000C944B000C944B000C944B000C944B0034
:100020000C944B000C944B000C944B000C944B0024
:100030000C944B000C944B000C944B000C944B0014
:100040000C944B000C944B000C944B000C944B0004
:100050000C944B000C944B000C944B000C944B00F4
:100060000C944B000C944B0024EC220011241FBE76
:10007000CFEFD8E0DEBFCDBF11E0A0E0B1E0E0EE11
:10008000F3E002C005900D92AE32B107D9F70E949D
:100090008E010C94EE010C9400002A98299A85E0B8
:1000A0008A95F1F70000289A95E09A95F1F70000FB
:1000B00089B1289895E09A95F1F70000289A95E083
:1000C0009A95F1F700002898299887FF02C081E0EF
:1000D000089580E008958AE08A95F1F700C0289A93
:1000E0008AE08A95F1F700C028980895CF93C82F29
:1000F0008AB1806F8AB92A9829988BB18F709C2F0A
:10010000907F892B8BB90E946B008BB1282F2F70A9
:1001100030E1C39FC0011124822B8BB90E946B0078
:1001200080EF8A95F1F729985798569855985498E2
:10013000CF910895CF93C82F8AB1806F8AB92A9A38
:1001400029988BB18F709C2F907F892B8BB90E943F
:100150006B008BB1282F2F7030E1C39FC001112499
:10016000822B8BB90E946B002A9880EF8A95F1F759
:100170005798569855985498CF910895CF92DF92FA
:10018000EF92FF920F931F93CF93DF9300D01F92B4
:10019000CDB7DEB7082F8091000190910101A091A9
:1001A000020189839A83AB832A98299828988AB177
:1001B000806F8AB984B1876084B98FE59AEE019720
:1001C000F1F700C0000013E08BB18F7080638BB932
:1001D0000E946B00EFE1FEE43197F1F700C00000F0
:1001E000115091F78BB18F7080628BB90E946B00B8
:1001F000F5EDFA95F1F700008BB18F7080628BB945
:10020000002331F00E946B008BB18F70806804C0B6
:100210000E946B008BB18F708BB90E946B008FE1D5
:100220009EE40197F1F700C00000FE0131967F01C6
:100230008E010C5F1F4F8BB16701F70191917F0118
:10024000907F8F70892B8BB90E946B002BB1F601C8
:100250009081F0E19F9FC0011124922F9F70892B04
:100260008BB90E946B0028988FE39FE10197F1F70B
:1002700000C00000E016F106F1F657985698559820
:1002800054980F900F900F90DF91CF911F910F9185
:10029000FF90EF90DF90CF90089581E00E9476006C
:1002A0000E944D008111FCCF089582E00E947600EB
:1002B0008FE39FE10197F1F700C0000008950E94CD
:1002C00076000E944D008111FCCF08950C945F01CF
:1002D000813019F0823029F008958FEF860F806801
:1002E00003C08FEF860F806C0C9476000F931F93E2
:1002F000CF93DF93EC018E018881882351F00E9417
:100300004D008111FCCF2196F80180810E949A0056
:10031000F2CFDF91CF911F910F9108958FEF8AB99E
:1003200087EF84B91BB888E085B91092C10081E0DD
:100330000E94BE008CE00E946601C0E00E944D0158
:100340000E94550183E091E00E94760161E070E037
:1003500082E00E94680184E191E00E9476011B9B8B
:10036000EDCF1B99FECF8FE39CE90197F1F700C019
:10037000000061E070E082E00E94680186E291E0A6
:100380000E9476018FEF0E949A008FEF0E949A00E0
:100390008FEF0E949A0085E291E00E94760167E06B
:1003A00070E082E00E946801D1E01B9B10C01B99A5
:1003B000FECF8FE39CE90197F1F700C00000EC2F1E
:1003C000F0E0E859FF4F84910E949A00DF5FCF5F11
:1003D000C33009F4C0E0D53040F3B0CFF894FFCF7C
:1003E0000F0106436163612D6E697175656C204173
:1003F000565224005072657373206F20626F7461CF
:0E0400006F212121002A2A2A2A2A2A2A0000F6
:00000001FF
