:100000000C9434000C9451000C9451000C94510049
:100010000C9451000C9451000C9451000C9451001C
:100020000C9451000C94A7000C9451000C945100B6
:100030000C9451000C9451000C9451000C945100FC
:100040000C946C000C9451000C9451000C945100D1
:100050000C9451000C9451000C9451000C945100DC
:100060000C9451000C94510011241FBECFEFD8E026
:10007000DEBFCDBF11E0A0E0B1E0EEEBF2E002C0E8
:1000800005900D92A230B107D9F721E0A2E0B1E0CE
:1000900001C01D92A430B207E1F70E9453000C94F6
:1000A0005D010C94000083E38AB98FEF84B98CEC76
:1000B0008BB915B84EEF6DE380E00E94D40084E662
:1000C00086BD4EEF6FE080E00E9408018091020142
:1000D0008093B2007894FFCF1F920F920FB60F92C9
:1000E00011248F93809103018F5F8093030184E635
:1000F00086BD809103018A3021F54A9904C081E0D0
:10010000809301011CC04B9903C01092010117C0DC
:100110004E990AC0809102018A3F30F48091020119
:100120008B5F809302010BC04F9909C0809102013F
:10013000882329F08091020185508093020110925A
:1001400003018F910F900FBE0F901F9018951F9273
:100150000F920FB60F9211248F938091020180931A
:10016000B200809100018F7085B9809101018823D0
:1001700059F08091000186958093000181110EC095
:1001800088E0809300010AC080910001880F80936D
:100190000001803119F481E0809300018F910F906C
:1001A0000FBE0F901F90189514BC15BCEEE6F0E042
:1001B0009081977F9083811105C085B56770682B0A
:1001C00065BD1FC0853060F494B5262F207F8370F5
:1001D000822B892B84BD85B56770682B65BD11C0E6
:1001E00024B5362F307F982F9370932B922B94BD8C
:1001F00025B590E0880F991F88706770862B822B39
:1002000085BDEEE6F0E080814095482B408308955F
:100210001092B0001092B1001092B600E0E7F0E04A
:100220009081977F9083811107C0E1EBF0E090818E
:100230006770692B60833AC0853080F4E0EBF0E0B2
:100240009081262F207F8370822B892B8083E1EB86
:10025000F0E090816770692B608328C08830B0F42B
:10026000E0EBF0E02081362F307F982F9370932BB6
:10027000922B9083E1EBF0E0208190E0880F991FB2
:1002800088706770862B822B808310C080E28093F9
:10029000B600E0EBF0E08081962F907F892B808381
:1002A000E1EBF0E080816770682B6083E0E7F0E0CD
:0E02B00080814095482B40830895F894FFCF3D
:0202BE00080135
:00000001FF
