:100000000C9434000C943E000C943E000C943E0082
:100010000C943E000C944D000C943E000C943E0059
:100020000C943E000C943E000C943E000C943E0058
:100030000C943E000C943E000C943E000C943E0048
:100040000C943E000C943E000C943E000C943E0038
:100050000C943E000C943E000C943E000C943E0028
:100060000C943E000C943E0011241FBECFEFD8E04C
:10007000DEBFCDBF0E9440000C9472000C940000C3
:100080008FE38AB980EC8BB91092C10094E0909311
:10009000680080936D007894FFCF1F920F920FB687
:1000A0000F9211242F938F939F934F9904C09BB16C
:1000B00082E089278BB94E9904C09BB181E08927E2
:1000C0008BB92FEF83EC99E0215080409040E1F70D
:1000D00000C000009F918F912F910F900FBE0F9045
:0800E0001F901895F894FFCF62
:00000001FF
