S00D0000536F6E61722E7372656314
S11300000C943E000C945B000C945B000C945B001D
S11300100C945B000C945B000C945B000C945B00F0
S11300200C945B000C945B000C9472010C945B00C8
S11300300C945B000C945B000C945B000C945B00D0
S11300400C945B000C945B000C945B000C945B00C0
S11300500C945B000C945B000C945B000C945B00B0
S11300600C945B000C945B0078787800004469730E
S113007074616E63203D20636D00000011241FBE77
S1130080CFEFD8E0DEBFCDBF11E0A0E0B1E0EAE6FB
S1130090F4E002C005900D92A430B107D9F721E035
S11300A0A4E0B1E001C01D92A830B207E1F70E94BC
S11300B0BC010C9433020C940000611104C09BB188
S11300C09B7F9BB903C09BB194609BB99BB19F700C
S11300D0282F207F922B9BB945E04A95F1F7000029
S11300E09BB198609BB995E09A95F1F700009BB19C
S11300F0977F9BB940EF4A95F1F79BB140E1849F0C
S1130100900111249F70292B2BB995E09A95F1F752
S113011000009BB198609BB945E04A95F1F7000057
S11301209BB1977F9BB990EF9A95F1F7611108C045
S1130130843030F48FE39FE10197F1F700C00000B1
S113014008958BB18B7F8BB98BB1877F8BB92FEFE0
S113015089EF90E0215080409040E1F700C000001A
S11301608BB18F7080638BB925E02A95F1F700007D
S11301708BB188608BB985E08A95F1F700008BB16B
S1130180877F8BB990EF9A95F1F78FE19EE4019701
S1130190F1F700C0000095E09A95F1F700008BB1EB
S11301A088608BB925E02A95F1F700008BB1877F31
S11301B08BB980EF8A95F1F78FE193E00197F1F71E
S11301C000C0000095E09A95F1F700008BB18860BB
S11301D08BB925E02A95F1F700008BB1877F8BB9A5
S11301E080EF8A95F1F78BB18F7080628BB995E0BF
S11301F09A95F1F700008BB188608BB925E02A95B8
S1130200F1F700008BB1877F8BB980EF8A95F1F706
S113021060E088E20E945D0060E088E00E945D008A
S113022060E081E00E945D0060E08CE00E945D007F
S113023060E080E80E945D000895CF93DF93EC01B5
S113024004C061E00E945D00219688818111F9CF8C
S1130250DF91CF910895CF93DF93EC0106C0FE01A7
S1130260849161E00E945D002196FE0184918111D8
S1130270F6CFDF91CF910895AC01FB0180E006C079
S1130280DF01A80FB11D90E39C938F5F8530C0F30D
S11302909A01ADECBCEC0E94240296958795969544
S11302A08795969587959C01220F331F880F991F78
S11302B0880F991F880F991F820F931F9A01281B7B
S11302C0390BC901805D81939A010E942402AC011B
S11302D05695479556954795569547954115510519
S11302E0B9F608951F920F920FB60F9211242F930F
S11302F03F935F936F937F938F939F93AF93BF933A
S1130300EF93FF93E1E8F0E0908180E48927808314
S1130310808186FD09C0809186009091870090932A
S113032007018093060118C0809186009091870090
S11303302091060130910701821B930B880F991FAE
S1130340880F991F880F991F60EA73E00E941002BA
S11303507093050160930401FF91EF91BF91AF91F8
S11303609F918F917F916F915F913F912F910F900A
S11303700FBE0F901F901895CF93DF9300D000D03D
S11303801F92CDB7DEB78FEF8AB982E084B98DEFC3
S113039085B982E48093810080E280936F00789431
S11303A00E94A1008DE690E00E942B0185B182603D
S11303B085B925E32A95F1F7000085B18D7F85B9CC
S11303C060E08AE80E945D0080910401909105013B
S11303D08F3A21E09207B0F4BE016F5F7F4F0E9415
S11303E03C0161E08B810E945D0061E08A810E9492
S11303F05D0061E089810E945D0080E091E00E94DF
S11304001D0104C088E690E00E942B018FEF90E765
S113041022E0815090402040E1F700C00000C6CFA8
S1130420AA1BBB1B51E107C0AA1FBB1FA617B70716
S113043010F0A61BB70B881F991F5A95A9F7809532
S11304409095BC01CD010895A29FB001B39FC00156
S1130450A39F700D811D1124911DB29F700D811DEC
S10D04601124911D0895F894FFCFB4
S107046A636D0000BA
S9030000FC
