S02A00007330355F6530375F70697363615F6C65645F337872617069646F5F33786C656E746F2E737265633F
S11300000C9434000C943E000C943E000C943E007E
S11300100C943E000C943E000C943E000C943E0064
S11300200C943E000C943E000C943E000C943E0054
S11300300C943E000C943E000C943E000C943E0044
S11300400C943E000C943E000C943E000C943E0034
S11300500C943E000C943E000C943E000C943E0024
S11300600C943E000C943E0011241FBECFEFD8E048
S1130070DEBFCDBF0E9440000C9464000C940000CD
S11300808FEF84B930E286E090E025B1232725B9CB
S11300902FEF43EC59E0215040405040E1F700C0BD
S11300A00000019791F786E090E025B1232725B958
S11300B02FEF43ED50E3215040405040E1F700C0A2
S10F00C00000019791F7DFCFF894FFCF08
S9030000FC
