S02000007330355F6531375F706F736963696F6E615F637572736F722E73726563DF
S11300000C9434000C9449000C9449000C9449005D
S11300100C9449000C9449000C9449000C94490038
S11300200C9449000C9449000C9449000C94490028
S11300300C9449000C9449000C9449000C94490018
S11300400C9449000C9449000C9449000C94490008
S11300500C9449000C9449000C9449000C944900F8
S11300600C9449000C94490011241FBECFEFD8E032
S1130070DEBFCDBF11E0A0E0B1E0E2E3F3E002C0F7
S113008005900D92A430B107D9F70E9447010C9452
S113009097010C9400002A98299A85E08A95F1F733
S11300A00000289A95E09A95F1F7000089B1289804
S11300B095E09A95F1F70000289A95E09A95F1F762
S11300C000002898299887FF02C081E0089580E005
S11300D008958AE08A95F1F700C0289A8AE08A9503
S11300E0F1F700C028980895CF93C82F8AB1806F84
S11300F08AB92A9829988BB18F709C2F907F892B6D
S11301008BB90E9469008BB1282F2F7030E1C39FF7
S1130110C0011124822B8BB90E94690080EF8A955B
S1130120F1F729985798569855985498CF9108956F
S1130130CF92DF92EF92FF920F931F93CF93DF93AF
S113014000D01F92CDB7DEB7082F809100019091A7
S11301500101A091020189839A83AB832A9829988B
S113016028988AB1806F8AB984B1876084B98FE591
S11301709AEE0197F1F700C0000013E08BB18F7085
S113018080638BB90E946900EFE1FEE43197F1F7D7
S113019000C00000115091F78BB18F7080628BB951
S11301A00E946900F5EDFA95F1F700008BB18F70AC
S11301B080628BB9002331F00E9469008BB18F708B
S11301C0806804C00E9469008BB18F708BB90E9453
S11301D069008FE19EE40197F1F700C00000FE0181
S11301E031967F018E010C5F1F4F8BB16701F701C0
S11301F091917F01907F8F70892B8BB90E94690048
S11302002BB1F6019081F0E19F9FC0011124922F40
S11302109F70892B8BB90E94690028988FE39FE116
S11302200197F1F700C00000E016F106F1F65798C7
S11302305698559854980F900F900F90DF91CF9146
S11302401F910F91FF90EF90DF90CF90089581E080
S11302500E9474000E944B008111FCCF089582E03B
S11302600E9474008FE39FE10197F1F700C0000042
S11302700895813019F0823029F008958FEF860FA8
S1130280806803C08FEF860F806C0C94740080EF3D
S11302908AB98FEF84B98FE08BB915B81092C10079
S11302A081E00E9498000E9427010E942F01D1E062
S11302B0C1E06C2F70E08D2F0E943901489909C06C
S11302C0489BFECF8FE39CE90197F1F700C0000043
S11302D0D1504B9909C04B9BFECF8FE39CE901970A
S11302E0F1F700C00000DF5F4A9909C04A9BFECFC6
S11302F08FE39CE90197F1F700C00000CF5F4999B3
S113030009C0499BFECF8FE39CE90197F1F700C038
S11303100000C150DD2321F0D33019F4D1E001C035
S1130320D2E0C13129F2C111C4CFC0E1C2CFF894E7
S1050330FFCFF9
S10703320F010600AD
S9030000FC
