:100000000C9450000C9465000C9465000C946500F1
:100010000C9465000C9465000C9465000C946500CC
:100020000C9465000C9465000C9465000C946500BC
:100030000C9465000C9465000C9465000C946500AC
:100040000C9465000C9465000C9465000C9465009C
:100050000C9465000C9465000C9465000C9465008C
:100060000C9465000C946500060506150E0E151619
:100070000B090B0E081601041C1D1C04010E1111A6
:10008000110A0E040E1F1F1F0E0E040E1B1111115C
:10009000111F0E1B111F1F1F1F0E1F1F1F1F1F1FB2
:1000A00011241FBECFEFD8E0DEBFCDBF11E0A0E02E
:1000B000B1E0ECEFF3E002C005900D92A431B1077E
:1000C000D9F70E94CE010C94FC010C9400002A98F0
:1000D000299A85E08A95F1F70000289A95E09A958B
:1000E000F1F7000089B1289895E09A95F1F70000A2
:1000F000289A95E09A95F1F700002898299887FFAB
:1001000002C081E0089580E008958AE08A95F1F7C1
:1001100000C0289A8AE08A95F1F700C028980895CF
:10012000CF93C82F8AB1806F8AB92A9829988BB14A
:100130008F709C2F907F892B8BB90E9485008BB18B
:10014000282F2F7030E1C39FC0011124822B8BB95F
:100150000E94850080EF8A95F1F729985798569864
:1001600055985498CF910895CF93C82F8AB1806F36
:100170008AB92A9A29988BB18F709C2F907F892BEE
:100180008BB90E9485008BB1282F2F7030E1C39F5F
:10019000C0011124822B8BB90E9485002A9880EF20
:1001A0008A95F1F75798569855985498CF91089595
:1001B000CF92DF92EF92FF920F931F93CF93DF9333
:1001C00000D01F92CDB7DEB7082F8091000190912B
:1001D0000101A091020189839A83AB832A9829980F
:1001E00028988AB1806F8AB984B1876084B98FE515
:1001F0009AEE0197F1F700C0000013E08BB18F7009
:1002000080638BB90E948500EFE1FEE43197F1F73E
:1002100000C00000115091F78BB18F7080628BB9D4
:100220000E948500F5EDFA95F1F700008BB18F7013
:1002300080628BB9002331F00E9485008BB18F70F2
:10024000806804C00E9485008BB18F708BB90E94BA
:1002500085008FE19EE40197F1F700C00000FE01E8
:1002600031967F018E010C5F1F4F8BB16701F70143
:1002700091917F01907F8F70892B8BB90E948500AF
:100280002BB1F6019081F0E19F9FC0011124922FC4
:100290009F70892B8BB90E94850028988FE39FE17E
:1002A0000197F1F700C00000E016F106F1F657984B
:1002B0005698559854980F900F900F90DF91CF91CA
:1002C0001F910F91FF90EF90DF90CF90089581E004
:1002D0000E9490000E9467008111FCCF089582E087
:1002E0000E9490008FE39FE10197F1F700C00000AA
:1002F0000895813019F0823029F008958FEF860F2C
:10030000806803C08FEF860F806C0C9490000F9371
:100310001F93CF93DF93EC018E018881882351F0E6
:100320000E9467008111FCCF2196F80180810E9414
:10033000B400F2CFDF91CF911F910F910895CF922A
:10034000DF92EF92FF920F931F93CF937C0100E017
:1003500010E0C0E48C2F0E949000C12CD12CF6013B
:10036000E00FF11FEE0DFF1D84910E94B4008FEF8E
:10037000C81AD80A87E0C816D10489F780E00E941D
:10038000B400C85F095F1F4FC03821F7CF911F919C
:100390000F91FF90EF90DF90CF9008958FEF8AB983
:1003A00084B91BB815B81092C10081E00E94D80032
:1003B00088E690E00E949F010E9467010E946F0101
:1003C00083E091E00E94870161E070E082E00E949A
:1003D0007901C0E08C2F0E94B4000E946700811157
:1003E000FCCF80E20E94B4000E9467008111FCCF24
:0C03F000CF5FC83079F7FFCFF894FFCF43
:1003FC000F010643616361637465726573206E6FF0
:04040C00766F730094
:00000001FF
