S0160000446973706C61795F375365675F432E73726563E1
S11300000C943C000C9446000C9446000C9446005E
S11300100C9446000C9446000C9446000C94460044
S11300200C9446000C9446000C9446000C94460034
S11300300C9446000C9446000C9446000C94460024
S11300400C9446000C9446000C9446000C94460014
S11300500C9446000C9446000C9446000C94460004
S11300600C9446000C9446003F065B4F666D7D077A
S11300707F67777C395E797111241FBECFEFD8E09A
S1130080DEBFCDBF0E9448000C9469000C940000B0
S11300908EEF84B981E085B98FEF8AB91BB81092CD
S11300A0C10080E01899FECF8F3011F08F5F01C03E
S11300B080E0E82FF0E0E859FF4FE491EBB92FEF2F
S11300C033EC99E0215030409040E1F700C000004B
S10900D0E9CFF894FFCF14
S9030000FC
