S01C00007330395F6530385F72656C6F67696F5F32345F682E7372656324
S11300000C9434000C9451000C9451000C94510045
S11300100C9451000C9451000C9451000C94510018
S11300200C9451000C94FA010C9451000C9451005E
S11300300C9451000C9451000C9451000C945100F8
S11300400C9451000C9451000C9451000C945100E8
S11300500C9451000C9451000C9451000C945100D8
S11300600C9451000C94510011241FBECFEFD8E022
S1130070DEBFCDBF11E0A0E0B1E0E8EEF4E002C0E5
S113008005900D92A430B107D9F721E0A4E0B1E0C6
S113009001C01D92A730B207E1F70E9499010C94A8
S11300A072020C9400002A98299A0000289A0000F1
S11300B089B128980000289A00002898299887FF79
S11300C002C081E0089580E0089500C0289A00C02D
S11300D028980895CF93C82F8BB18F709C2F907F51
S11300E0892B8BB90E9465008BB1282F2F7030E1CA
S11300F0C39FC0011124822B8BB9CF910C9465004E
S11301009AB1906F9AB92A9829980E946A008FE050
S11301108A95F1F729988AB18F708AB908959AB1AE
S1130120906F9AB92A9A29980E946A002A988FE0B7
S11301308A95F1F78AB18F708AB90895EF92FF9288
S11301400F931F93CF93DF9300D01F92CDB7DEB7E9
S1130150082F8091000190910101A09102018983EF
S11301609A83AB832A98299828988AB1806F8AB990
S113017084B1876084B985EA9EE00197F1F700C0F5
S1130180000013E08BB18F7080638BB90E9465000F
S1130190E1EEF4E03197F1F700C00000115091F75F
S11301A08BB18F7080628BB90E946500FDE0FA9577
S11301B0F1F70000002311F088E201C080E20E9400
S11301C06A0081EE94E00197F1F700C000008E010F
S11301D00F5F1F4F7E0194E0E90EF11CF80181913D
S11301E08F010E946A00289883EF91E00197F1F74C
S11301F000C000000E151F0589F78AB18F708AB9F7
S11302000F900F900F90DF91CF911F910F91FF905E
S1130210EF90089581E00E9480000E9453008111B4
S1130220FCCF089582E00E94800083EF91E0019763
S1130230F1F700C0000008950E9480000E9453005E
S11302408111FCCF08950C941C01813019F0823087
S113025029F008958FEF860F806803C08FEF860F13
S1130260806C0C948000CF930E940A0165E070E0DA
S113027081E00E942501809104018A3038F480E3F2
S11302800E948F0080910401805D10C08091040160
S1130290CAE06C2F0E946602805D0E948F008091EC
S11302A004016C2F0E94660280E3890F0E948F0074
S11302B08AE30E948F00809105018A3038F480E33C
S11302C00E948F0080910501805D10C0809105011E
S11302D0CAE06C2F0E946602805D0E948F008091AC
S11302E005016C2F0E94660280E3890F0E948F0033
S11302F08AE30E948F00809106018A3038F480E3FB
S11303000E948F0080910601805D10C080910601DB
S1130310CAE06C2F0E946602805D0E948F0080916B
S113032006016C2F0E94660280E3890FCF910C9422
S11303308F008FEF8AB997EC97B984B91BB888E31B
S113034088B915B880E00E949E008CE00E942301C9
S11303500E940A010E94120140E16DEF88E00E94B0
S11303602B0278940E943301339919C083EC99E0ED
S11303700197F1F700C00000F89411C0349B12C03B
S1130380359B24C00E943301339B09C083EC99E060
S11303900197F1F700C00000789410920601339B96
S11303A0EDCFE0CF3499FECF83EC99E00197F1F7DC
S11303B000C00000809104018F5F8093040180914C
S11303C004018931E9F610920401DACF3599FECFA0
S11303D083EC99E00197F1F700C0000080910501DA
S11303E08F5F80930501809105018C3359F610923B
S11303F00501C8CF1F920F920FB60F9211248F934D
S1130400809106018F5F80930601809106018C33F1
S1130410E1F410920601809105018F5F809305013C
S1130420809105018C3389F41092050180910401B7
S11304308F5F8093040180910401883131F410921C
S1130440060110920501109204018F910F900FBEC6
S11304500F901F9018951092B0001092B100109256
S1130460B60090917000977F90937000962F9770CC
S1130470882301F1607F853040F42091B000622B25
S11304808370862B8093B00015C0883058F4209177
S1130490B000622B8370862B8093B0008091B100F2
S11304A088600AC080E28093B6008091B000682B17
S11304B06093B0008091B100982B9093B10080912B
S11304C070004095482B409370000895991B79E083
S11304D004C0991F961708F0961B881F7A95C9F7D0
S10B04E080950895F894FFCF04
S10704E80F010600F6
S9030000FC
