:100000000C9434000C9451000C9451000C94510049
:100010000C9451000C9451000C9451000C9451001C
:100020000C9451000C9451000C9451000C9451000C
:100030000C9451000C9451000C9451000C945100FC
:100040000C948F000C9451000C9451000C945100AE
:100050000C9451000C9451000C9451000C945100DC
:100060000C9451000C94510011241FBECFEFD8E026
:10007000DEBFCDBF11E0A0E0B1E0E8EBF3E002C0ED
:1000800005900D92A230B107D9F721E0A2E0B1E0CE
:1000900001C01D92A330B207E1F70E9453000C94F7
:1000A000DA010C9400008FE08AB98FEF84B98BB924
:1000B00015B81092C1004EEF6DE080E00E9466011D
:1000C00084E686BD7894FFCFCF93DF93EC014FEFAA
:1000D00069E88EE00E949A01CE01969587959093EB
:1000E000890080938800D0938700C093860020E029
:1000F0000DC0EFE8F1E03197F1F700C00000019783
:1001000002C086EA94E00097A1F72F5F2230C8F37F
:100110001092800010928100DF91CF9108951F927C
:100120000F920FB60F9211242F933F934F935F932B
:100130006F937F938F939F93AF93BF93EF93FF93AF
:10014000809102018F5F8093020184E686BD8091D9
:1001500002018A3009F0A9C0589B28C08091000193
:10016000813021F582E0809300018BB18E7F8BB9C5
:100170008BB182608BB98BB18B7F8BB98BB1877F51
:100180008BB94C9905C087EB9BE30E9464008BC040
:100190004D9905C087ED97E20E94640084C04E9996
:1001A00082C084E392E30E9464007DC0599B28C012
:1001B00080910001823021F583E0809300018BB1B2
:1001C0008E7F8BB98BB18D7F8BB98BB184608BB9EE
:1001D0008BB1877F8BB94C9905C082E395E30E9470
:1001E000640061C04D9905C085E097E40E946400F9
:1001F0005AC04E9958C087E39AE20E94640053C0E7
:100200005A9B28C080910001833021F584E08093BF
:1002100000018BB18E7F8BB98BB18D7F8BB98BB188
:100220008B7F8BB98BB188608BB94C9905C083E605
:100230009FE20E94640037C04D9905C085E49FE3AA
:100240000E94640030C04E992EC08BE995E20E9456
:10025000640029C05B9B27C080910001843019F5A0
:1002600081E0809300018BB181608BB98BB18D7F70
:100270008BB98BB18B7F8BB98BB1877F8BB94C9945
:1002800005C08BEE9CE20E9464000DC04D9905C034
:100290008DE598E30E94640006C04E9904C087E093
:1002A00093E40E94640010920201FF91EF91BF91CC
:1002B000AF919F918F917F916F915F914F913F91FE
:1002C0002F910F900FBE0F901F90189514BC15BC66
:1002D000EEE6F0E09081977F9083811105C085B5AF
:1002E0006770682B65BD1FC0853060F494B5262FFC
:1002F000207F8370822B892B84BD85B56770682B26
:1003000065BD11C024B5362F307F982F9370932B85
:10031000922B94BD25B590E0880F991F8870677067
:10032000862B822B85BDEEE6F0E080814095482B40
:10033000408308951092800010928100EFE6F0E073
:100340009081977D9083411107C0E1E8F0E08081C2
:100350006774682B608327C0643080F4E0E8F0E0C5
:100360009081262F207F8370822B892B8083E1E868
:10037000F0E080816770682B608315C0E0E8F0E0F2
:100380002081362F307F982F9370932B922B908360
:10039000E1E8F0E0208190E0880F991F8871677094
:1003A000862B822B8083EFE6F0E080814095482BFE
:0803B00040830895F894FFCF8B
:0203B800010042
:00000001FF
