:100000000C94B4000C94D1000C94D1000C94D10049
:100010000C94D1000C94D1000C94D1000C94D1001C
:100020000C94D1000C94D1000C94D1000C94D1000C
:100030000C94D1000C94D1000C94D1000C94D100FC
:100040000C94E8000C94D1000C94D1000C94D100D5
:100050000C94D1000C94D1000C94D1000C94D100DC
:100060000C94D1000C94D100FEFEFEFEFEFEFEFEBE
:10007000FEFEFEFEFEFEFEFEFEFEFEFEFEFEFEFEA0
:10008000FEFEFEFEFEFEFEFEFEFEFEFEFEFEFEFE90
:10009000FEFEFEFEFEFEFEFEFEFEFEFEFEFEFEFE80
:1000A000FEFEFEFEFEFEFEFEFEFEFEFEFEFEFEFE70
:1000B000FEFEFEFEFEFEFEFEFEFEFEFEFEFEFEFE60
:1000C000FEFEFEFEFEFEFEFEFEFEFEFEFEFEFEFE50
:1000D000FEFEFEFEFEFEFEFEFEFEFEFEFEFEFEFE40
:1000E000FEFEFEFEFEFEFEFE000000000000000020
:1000F0000000000000000000000000000000000000
:1001000000000000000000000000000000000000EF
:1001100000000000000000000000000000000000DF
:1001200000000000000000000000000000000000CF
:1001300000000000000000000000000000000000BF
:1001400000000000000000000000000000000000AF
:10015000000000000000000000000000000000009F
:10016000000000000000000011241FBECFEFD8E007
:10017000DEBFCDBF11E0A0E0B1E0E0EBF2E002C0F5
:1001800005900D92A230B107D9F721E0A2E0B1E0CD
:1001900001C01D92A430B207E1F70E94D3000C9475
:1001A00056010C9400008FEF8AB99CEF97B984B97F
:1001B0001BB883E088B915B81092C1004EEF6DE00E
:1001C00080E00E9422018091000186BD7894FFCFDB
:1001D0001F920F920FB60F9211248F93EF93FF93FC
:1001E0008091000186BD809103018F5F80930301A0
:1001F000E0910201EF5FE0930201893159F43099F7
:1002000004C086EF8093000105C0319903C08AE0E5
:1002100080930001F0E0E859FF4FE491EBB9809141
:1002200002018F3720F485B18E7F85B903C085B177
:10023000816085B9FF91EF918F910F900FBE0F9064
:100240001F90189514BC15BCEEE6F0E09081977FE6
:100250009083811105C085B56770682B65BD1FC08F
:10026000853060F494B5262F207F8370822B892BF4
:1002700084BD85B56770682B65BD11C024B5362F68
:10028000307F982F9370932B922B94BD25B590E0DF
:10029000880F991F88706770862B822B85BDEEE6CC
:1002A000F0E080814095482B40830895F894FFCF7B
:0202B000C30089
:00000001FF
