:100000000C9434000C943E000C943E000C943E0082
:100010000C943E000C943E000C943E000C943E0068
:100020000C943E000C943E000C943E000C943E0058
:100030000C943E000C943E000C943E000C943E0048
:100040000C943E000C943E000C943E000C943E0038
:100050000C943E000C943E000C943E000C943E0028
:100060000C943E000C943E0011241FBECFEFD8E04C
:10007000DEBFCDBF0E946A000C9481000C9400008A
:10008000CF93DF9300D000D0CDB7DEB780E091E012
:100090009A83898313C08FEF9FEF9C838B8305C066
:1000A0008B819C8101979C838B838B819C81892B85
:1000B000B9F789819A8101979A83898389819A8185
:1000C000892B49F700000F900F900F900F90DF9150
:1000D000CF910895CF93DF93CDB7DEB78AE290E05A
:1000E0002FEFFC0120838BE290E02FEFFC012083B7
:1000F0000E9440008BE290E0FC0110820E944000D0
:06010000F2CFF894FFCFDE
:00000001FF
